{
  "contractName": "CommunityChest",
  "abi": [
    {
      "constant": false,
      "inputs": [],
      "name": "withdraw",
      "outputs": [],
      "payable": false,
      "stateMutability": "nonpayable",
      "type": "function"
    },
    {
      "constant": false,
      "inputs": [
        {
          "name": "amount",
          "type": "uint256"
        }
      ],
      "name": "deposit",
      "outputs": [],
      "payable": true,
      "stateMutability": "payable",
      "type": "function"
    },
    {
      "constant": true,
      "inputs": [],
      "name": "getBalance",
      "outputs": [
        {
          "name": "",
          "type": "uint256"
        }
      ],
      "payable": false,
      "stateMutability": "view",
      "type": "function"
    }
  ],
  "bytecode": "0x608060405234801561001057600080fd5b506101e3806100206000396000f300608060405260043610610057576000357c0100000000000000000000000000000000000000000000000000000000900463ffffffff16806312065fe01461005c5780633ccfd60b14610087578063b6b55f251461009e575b600080fd5b34801561006857600080fd5b506100716100be565b6040518082815260200191505060405180910390f35b34801561009357600080fd5b5061009c6100dd565b005b6100bc6004803603810190808035906020019092919050505061013d565b005b60003073ffffffffffffffffffffffffffffffffffffffff1631905090565b3373ffffffffffffffffffffffffffffffffffffffff166108fc3073ffffffffffffffffffffffffffffffffffffffff16319081150290604051600060405180830381858888f1935050505015801561013a573d6000803e3d6000fd5b50565b80341415156101b4576040517f08c379a000000000000000000000000000000000000000000000000000000000815260040180806020018281038252600e8152602001807f496e76616c696420616d6f756e7400000000000000000000000000000000000081525060200191505060405180910390fd5b505600a165627a7a72305820b302a0c14a32cd3b9716939891c59f252bde1ec6ce9656dc90e9eb8dcbf2ea220029",
  "source": "pragma solidity ^0.4.17;\n\ncontract CommunityChest {\n    function withdraw() public {\n        msg.sender.transfer(address(this).balance);\n    }\n\n    function deposit(uint256 amount) public payable {\n        require(msg.value == amount, \"Invalid amount\");\n        // nothing else to do!\n    }\n\n    function getBalance() public view returns (uint256) {\n        return address(this).balance;\n    }\n}",
  "sourcePath": "/Users/jklol/Desktop/dev/Projects/Crypto/anybet/contracts/contracts/CommunityChest.sol",
  "compiler": {
    "name": "solc",
    "version": "0.4.24+commit.e67f0147.Emscripten.clang"
  },
  "schemaVersion": "2.0.1",
  "updatedAt": "2018-11-13T21:33:54.908Z"
}